{
  "contractName": "ICO",
  "abi": [
    {
      "inputs": [
        {
          "internalType": "address",
          "name": "_VVAToken",
          "type": "address"
        },
        {
          "internalType": "address",
          "name": "_BUSD",
          "type": "address"
        }
      ],
      "stateMutability": "nonpayable",
      "type": "constructor"
    },
    {
      "inputs": [
        {
          "internalType": "uint16",
          "name": "_tokens",
          "type": "uint16"
        }
      ],
      "name": "buyToken",
      "outputs": [],
      "stateMutability": "nonpayable",
      "type": "function"
    },
    {
      "inputs": [
        {
          "internalType": "address",
          "name": "_winer",
          "type": "address"
        },
        {
          "internalType": "uint256",
          "name": "_tokens",
          "type": "uint256"
        }
      ],
      "name": "reward",
      "outputs": [],
      "stateMutability": "nonpayable",
      "type": "function"
    },
    {
      "inputs": [],
      "name": "getUser",
      "outputs": [
        {
          "components": [
            {
              "internalType": "uint16",
              "name": "boughtTokens",
              "type": "uint16"
            },
            {
              "internalType": "uint256",
              "name": "boughtTime",
              "type": "uint256"
            }
          ],
          "internalType": "struct ICO.User",
          "name": "",
          "type": "tuple"
        }
      ],
      "stateMutability": "view",
      "type": "function",
      "constant": true
    },
    {
      "inputs": [],
      "name": "currentDay",
      "outputs": [
        {
          "internalType": "uint256",
          "name": "",
          "type": "uint256"
        }
      ],
      "stateMutability": "view",
      "type": "function",
      "constant": true
    }
  ],
  "bytecode": "0x60806040523480156200001157600080fd5b50604051620013203803806200132083398181016040528101906200003791906200019a565b600160008190555033600160006101000a81548173ffffffffffffffffffffffffffffffffffffffff021916908373ffffffffffffffffffffffffffffffffffffffff160217905550670214e8348c4f00006004819055506262e08042620000a091906200021a565b60058190555081600260006101000a81548173ffffffffffffffffffffffffffffffffffffffff021916908373ffffffffffffffffffffffffffffffffffffffff16021790555080600360006101000a81548173ffffffffffffffffffffffffffffffffffffffff021916908373ffffffffffffffffffffffffffffffffffffffff160217905550505062000277565b600080fd5b600073ffffffffffffffffffffffffffffffffffffffff82169050919050565b6000620001628262000135565b9050919050565b620001748162000155565b81146200018057600080fd5b50565b600081519050620001948162000169565b92915050565b60008060408385031215620001b457620001b362000130565b5b6000620001c48582860162000183565b9250506020620001d78582860162000183565b9150509250929050565b6000819050919050565b7f4e487b7100000000000000000000000000000000000000000000000000000000600052601160045260246000fd5b60006200022782620001e1565b91506200023483620001e1565b9250827fffffffffffffffffffffffffffffffffffffffffffffffffffffffffffffffff038211156200026c576200026b620001eb565b5b828201905092915050565b61109980620002876000396000f3fe608060405234801561001057600080fd5b506004361061004c5760003560e01c806312fb15201461005157806321670f221461006d5780635c9302c914610089578063832880e7146100a7575b600080fd5b61006b600480360381019061006691906108f7565b6100c5565b005b610087600480360381019061008291906109b8565b61040c565b005b610091610659565b60405161009e9190610a07565b60405180910390f35b6100af610674565b6040516100bc9190610a6f565b60405180910390f35b6005544210610109576040517f08c379a000000000000000000000000000000000000000000000000000000000815260040161010090610ae7565b60405180910390fd5b8061ffff1660006004548261011e9190610b36565b90506000600360009054906101000a900473ffffffffffffffffffffffffffffffffffffffff1673ffffffffffffffffffffffffffffffffffffffff166370a08231336040518263ffffffff1660e01b815260040161017d9190610b9f565b602060405180830381865afa15801561019a573d6000803e3d6000fd5b505050506040513d601f19601f820116820180604052508101906101be9190610bcf565b905081811015610203576040517f08c379a00000000000000000000000000000000000000000000000000000000081526004016101fa90610c48565b60405180910390fd5b836113888161ffff16111561024d576040517f08c379a000000000000000000000000000000000000000000000000000000000815260040161024490610cb4565b60405180910390fd5b600260005403610292576040517f08c379a000000000000000000000000000000000000000000000000000000000815260040161028990610d20565b60405180910390fd5b60026000819055506000600660003373ffffffffffffffffffffffffffffffffffffffff1673ffffffffffffffffffffffffffffffffffffffff168152602001908152602001600020905060006004548761ffff166102f19190610b36565b9050600062015180426103049190610d6f565b9050826001015481036103c75761031b82896106f5565b6000888460000160009054906101000a900461ffff1661033b9190610da0565b90506113888161ffff161115610386576040517f08c379a000000000000000000000000000000000000000000000000000000000815260040161037d90610e4a565b60405180910390fd5b888460000160008282829054906101000a900461ffff166103a79190610da0565b92506101000a81548161ffff021916908361ffff160217905550506103fa565b6103d182896106f5565b808360010181905550878360000160006101000a81548161ffff021916908361ffff1602179055505b50505060016000819055505050505050565b600160009054906101000a900473ffffffffffffffffffffffffffffffffffffffff1673ffffffffffffffffffffffffffffffffffffffff163373ffffffffffffffffffffffffffffffffffffffff161461049c576040517f08c379a000000000000000000000000000000000000000000000000000000000815260040161049390610eb6565b60405180910390fd5b806000600260009054906101000a900473ffffffffffffffffffffffffffffffffffffffff1673ffffffffffffffffffffffffffffffffffffffff166370a08231336040518263ffffffff1660e01b81526004016104fa9190610b9f565b602060405180830381865afa158015610517573d6000803e3d6000fd5b505050506040513d601f19601f8201168201806040525081019061053b9190610bcf565b90506000670de0b6b3a7640000836105539190610b36565b905080821015610598576040517f08c379a000000000000000000000000000000000000000000000000000000000815260040161058f90610c48565b60405180910390fd5b6000600260009054906101000a900473ffffffffffffffffffffffffffffffffffffffff1690508073ffffffffffffffffffffffffffffffffffffffff1663a9059cbb87670de0b6b3a7640000886105f09190610b36565b6040518363ffffffff1660e01b815260040161060d929190610ed6565b6020604051808303816000875af115801561062c573d6000803e3d6000fd5b505050506040513d601f19601f820116820180604052508101906106509190610f37565b50505050505050565b600080620151804261066b9190610d6f565b90508091505090565b61067c61089a565b600660003373ffffffffffffffffffffffffffffffffffffffff1673ffffffffffffffffffffffffffffffffffffffff1681526020019081526020016000206040518060400160405290816000820160009054906101000a900461ffff1661ffff1661ffff168152602001600182015481525050905090565b600360009054906101000a900473ffffffffffffffffffffffffffffffffffffffff1673ffffffffffffffffffffffffffffffffffffffff166323b872dd33600160009054906101000a900473ffffffffffffffffffffffffffffffffffffffff16856040518463ffffffff1660e01b815260040161077693929190610f64565b6020604051808303816000875af1158015610795573d6000803e3d6000fd5b505050506040513d601f19601f820116820180604052508101906107b99190610f37565b50600260009054906101000a900473ffffffffffffffffffffffffffffffffffffffff1673ffffffffffffffffffffffffffffffffffffffff166323b872dd600160009054906101000a900473ffffffffffffffffffffffffffffffffffffffff1633670de0b6b3a76400008561ffff166108349190610faf565b6040518463ffffffff1660e01b81526004016108529392919061102c565b6020604051808303816000875af1158015610871573d6000803e3d6000fd5b505050506040513d601f19601f820116820180604052508101906108959190610f37565b505050565b6040518060400160405280600061ffff168152602001600081525090565b600080fd5b600061ffff82169050919050565b6108d4816108bd565b81146108df57600080fd5b50565b6000813590506108f1816108cb565b92915050565b60006020828403121561090d5761090c6108b8565b5b600061091b848285016108e2565b91505092915050565b600073ffffffffffffffffffffffffffffffffffffffff82169050919050565b600061094f82610924565b9050919050565b61095f81610944565b811461096a57600080fd5b50565b60008135905061097c81610956565b92915050565b6000819050919050565b61099581610982565b81146109a057600080fd5b50565b6000813590506109b28161098c565b92915050565b600080604083850312156109cf576109ce6108b8565b5b60006109dd8582860161096d565b92505060206109ee858286016109a3565b9150509250929050565b610a0181610982565b82525050565b6000602082019050610a1c60008301846109f8565b92915050565b610a2b816108bd565b82525050565b610a3a81610982565b82525050565b604082016000820151610a566000850182610a22565b506020820151610a696020850182610a31565b50505050565b6000604082019050610a846000830184610a40565b92915050565b600082825260208201905092915050565b7f49434f20686173206265656e2065787069726564000000000000000000000000600082015250565b6000610ad1601483610a8a565b9150610adc82610a9b565b602082019050919050565b60006020820190508181036000830152610b0081610ac4565b9050919050565b7f4e487b7100000000000000000000000000000000000000000000000000000000600052601160045260246000fd5b6000610b4182610982565b9150610b4c83610982565b9250817fffffffffffffffffffffffffffffffffffffffffffffffffffffffffffffffff0483118215151615610b8557610b84610b07565b5b828202905092915050565b610b9981610944565b82525050565b6000602082019050610bb46000830184610b90565b92915050565b600081519050610bc98161098c565b92915050565b600060208284031215610be557610be46108b8565b5b6000610bf384828501610bba565b91505092915050565b7f596f7520646f6e74206861766520656e6f7567682062616c616e636500000000600082015250565b6000610c32601c83610a8a565b9150610c3d82610bfc565b602082019050919050565b60006020820190508181036000830152610c6181610c25565b9050919050565b7f6c696d697420666f7220627579696e6720746f6b656e20697320353030300000600082015250565b6000610c9e601e83610a8a565b9150610ca982610c68565b602082019050919050565b60006020820190508181036000830152610ccd81610c91565b9050919050565b7f5265656e7472616e637947756172643a207265656e7472616e742063616c6c00600082015250565b6000610d0a601f83610a8a565b9150610d1582610cd4565b602082019050919050565b60006020820190508181036000830152610d3981610cfd565b9050919050565b7f4e487b7100000000000000000000000000000000000000000000000000000000600052601260045260246000fd5b6000610d7a82610982565b9150610d8583610982565b925082610d9557610d94610d40565b5b828204905092915050565b6000610dab826108bd565b9150610db6836108bd565b92508261ffff03821115610dcd57610dcc610b07565b5b828201905092915050565b7f6c696d697420666f7220627579696e6720746f6b656e2069732035303030206560008201527f7665727920646179000000000000000000000000000000000000000000000000602082015250565b6000610e34602883610a8a565b9150610e3f82610dd8565b604082019050919050565b60006020820190508181036000830152610e6381610e27565b9050919050565b7f596f7520617265206e6f74206f776e6572000000000000000000000000000000600082015250565b6000610ea0601183610a8a565b9150610eab82610e6a565b602082019050919050565b60006020820190508181036000830152610ecf81610e93565b9050919050565b6000604082019050610eeb6000830185610b90565b610ef860208301846109f8565b9392505050565b60008115159050919050565b610f1481610eff565b8114610f1f57600080fd5b50565b600081519050610f3181610f0b565b92915050565b600060208284031215610f4d57610f4c6108b8565b5b6000610f5b84828501610f22565b91505092915050565b6000606082019050610f796000830186610b90565b610f866020830185610b90565b610f9360408301846109f8565b949350505050565b600067ffffffffffffffff82169050919050565b6000610fba82610f9b565b9150610fc583610f9b565b92508167ffffffffffffffff0483118215151615610fe657610fe5610b07565b5b828202905092915050565b6000819050919050565b600061101661101161100c84610f9b565b610ff1565b610982565b9050919050565b61102681610ffb565b82525050565b60006060820190506110416000830186610b90565b61104e6020830185610b90565b61105b604083018461101d565b94935050505056fea2646970667358221220c14ddad3b45bb7c83b927f65204d17e2d830f67f02834139b4d4b95aa962b33564736f6c634300080d0033",
  "immutableReferences": {},
  "source": "// SPDX-License-Identifier: GPL-3.\npragma solidity ^0.8.0;\n\nimport \"@openzeppelin/contracts/token/ERC20/utils/SafeERC20.sol\";\nimport \"@openzeppelin/contracts/security/ReentrancyGuard.sol\";\n\ncontract ICO is ReentrancyGuard {\n    struct User {\n        uint16 boughtTokens;\n        uint256 boughtTime;\n    }\n\n    address private owner;\n    address private VVAAddress;\n    address private BUSD;\n    // uint16 private buyLimit;\n    uint256 private rate;\n    uint256 private ICO_endTime;\n    mapping(address => User) private Users;\n\n    constructor(address _VVAToken, address _BUSD) {\n        owner = msg.sender;\n        rate = 15 * 10**16; //0.15BUSD\n        // buyLimit = 5000;\n        ICO_endTime = block.timestamp + (75 * 86400);\n        VVAAddress = _VVAToken;\n        // BUSD = 0x8301F2213c0eeD49a7E28Ae4c3e91722919B8B47; //busd bsc-testnet address\n        BUSD = _BUSD;\n    }\n\n    // check user busd balance\n    modifier enoughBalance(uint256 _tokens) {\n        uint256 finalPrice = _tokens * rate;\n        uint256 balance = IERC20(BUSD).balanceOf(msg.sender);\n        require(balance >= finalPrice, \"You dont have enough balance\");\n        _;\n    }\n\n    modifier expiredICO() {\n        require(block.timestamp < ICO_endTime, \"ICO has been expired\");\n        _;\n    }\n\n    modifier enoughVVaTokens(uint256 _tokens) {\n        uint256 balance = IERC20(VVAAddress).balanceOf(msg.sender);\n        uint256 tokens = _tokens * 10**18;\n        require(balance >= tokens, \"You dont have enough balance\");\n        _;\n    }\n\n    modifier limitTokens(uint16 _tokens) {\n        require(_tokens <= 5000, \"limit for buying token is 5000\");\n        _;\n    }\n\n    modifier onlyOwner() {\n        require(msg.sender == owner, \"You are not owner\");\n        _;\n    }\n\n    function buyToken(uint16 _tokens)\n        external\n        expiredICO\n        enoughBalance(_tokens)\n        limitTokens(_tokens)\n        nonReentrant\n    {\n        User storage user = Users[msg.sender];\n        uint256 finalPrice = _tokens * rate;\n        uint256 currentTime = uint256(block.timestamp) / uint256(86400);//1400 days\n        if (currentTime == user.boughtTime) {\n            sendTokens(finalPrice, _tokens);\n            uint16 total = user.boughtTokens + _tokens;\n            require(total <= 5000, \"limit for buying token is 5000 every day\");\n            user.boughtTokens += _tokens;\n        } else {\n            sendTokens(finalPrice, _tokens);\n            user.boughtTime = currentTime;\n            user.boughtTokens = _tokens;\n        }\n    }\n\n    function sendTokens(uint256 _finalPrice, uint16 _tokens) private {\n        IERC20(BUSD).transferFrom(msg.sender, owner, _finalPrice);\n        IERC20(VVAAddress).transferFrom(owner, msg.sender, _tokens * 10**18);\n        // IERC20 IVVAToken = IERC20(VVAAddress);\n        // IVVAToken.transfer(msg.sender, _tokens * 10**18);\n    }\n\n    function reward(address _winer, uint256 _tokens)\n        external\n        onlyOwner\n        enoughVVaTokens(_tokens)\n    {\n        IERC20 IVVAToken = IERC20(VVAAddress);\n        IVVAToken.transfer(_winer, _tokens * 10**18);\n    }\n\n    function getUser() external view returns (User memory) {\n        return Users[msg.sender];\n    }\n\n    function currentDay() public view returns(uint256) {\n        uint256 currentTime = uint256(block.timestamp) / uint256(86400);//1400 days\n        return currentTime;\n    }\n}\n",
  "sourcePath": "/Users/istore/Desktop/kayak/Achievvecoin/contracts/ICO.sol",
  "compiler": {
    "name": "solc",
    "version": "0.8.13+commit.abaa5c0e.Emscripten.clang"
  },
  "schemaVersion": "3.4.3",
  "updatedAt": "2022-03-17T14:27:53.965Z",
  "networkType": "ethereum",
  "devdoc": {
    "kind": "dev",
    "methods": {},
    "version": 1
  },
  "userdoc": {
    "kind": "user",
    "methods": {},
    "version": 1
  }
}